{
  "_format": "hh3-artifact-1",
  "contractName": "Odex",
  "sourceName": "contracts/Odex.sol",
  "abi": [
    {
      "anonymous": false,
      "inputs": [
        {
          "indexed": true,
          "internalType": "uint256",
          "name": "tradeId",
          "type": "uint256"
        },
        {
          "indexed": false,
          "internalType": "uint256",
          "name": "timestamp",
          "type": "uint256"
        }
      ],
      "name": "Active",
      "type": "event"
    },
    {
      "anonymous": false,
      "inputs": [
        {
          "indexed": true,
          "internalType": "uint256",
          "name": "tradeId",
          "type": "uint256"
        },
        {
          "indexed": false,
          "internalType": "address",
          "name": "buyer",
          "type": "address"
        },
        {
          "indexed": false,
          "internalType": "uint256",
          "name": "amount",
          "type": "uint256"
        }
      ],
      "name": "BuyerStaked",
      "type": "event"
    },
    {
      "anonymous": false,
      "inputs": [
        {
          "indexed": true,
          "internalType": "uint256",
          "name": "tradeId",
          "type": "uint256"
        }
      ],
      "name": "ItemReleased",
      "type": "event"
    },
    {
      "anonymous": false,
      "inputs": [
        {
          "indexed": true,
          "internalType": "uint256",
          "name": "tradeId",
          "type": "uint256"
        },
        {
          "indexed": false,
          "internalType": "address",
          "name": "seller",
          "type": "address"
        },
        {
          "indexed": false,
          "internalType": "uint256",
          "name": "price",
          "type": "uint256"
        }
      ],
      "name": "ListingCreated",
      "type": "event"
    },
    {
      "anonymous": false,
      "inputs": [
        {
          "indexed": true,
          "internalType": "uint256",
          "name": "tradeId",
          "type": "uint256"
        },
        {
          "indexed": false,
          "internalType": "string",
          "name": "reason",
          "type": "string"
        }
      ],
      "name": "Refunded",
      "type": "event"
    },
    {
      "anonymous": false,
      "inputs": [
        {
          "indexed": true,
          "internalType": "uint256",
          "name": "tradeId",
          "type": "uint256"
        }
      ],
      "name": "TradeCompleted",
      "type": "event"
    },
    {
      "inputs": [
        {
          "internalType": "uint256",
          "name": "_tradeId",
          "type": "uint256"
        }
      ],
      "name": "buyerDeposit",
      "outputs": [],
      "stateMutability": "payable",
      "type": "function"
    },
    {
      "inputs": [
        {
          "internalType": "uint256",
          "name": "_tradeId",
          "type": "uint256"
        }
      ],
      "name": "confirmDelivery",
      "outputs": [],
      "stateMutability": "nonpayable",
      "type": "function"
    },
    {
      "inputs": [
        {
          "internalType": "uint256",
          "name": "_price",
          "type": "uint256"
        }
      ],
      "name": "createListing",
      "outputs": [],
      "stateMutability": "nonpayable",
      "type": "function"
    },
    {
      "inputs": [
        {
          "internalType": "uint256",
          "name": "_tradeId",
          "type": "uint256"
        }
      ],
      "name": "emergencyWithdrawBuyer",
      "outputs": [],
      "stateMutability": "nonpayable",
      "type": "function"
    },
    {
      "inputs": [
        {
          "internalType": "uint256",
          "name": "_tradeId",
          "type": "uint256"
        }
      ],
      "name": "markItemReleased",
      "outputs": [],
      "stateMutability": "nonpayable",
      "type": "function"
    },
    {
      "inputs": [
        {
          "internalType": "uint256",
          "name": "_tradeId",
          "type": "uint256"
        }
      ],
      "name": "refundTimeout",
      "outputs": [],
      "stateMutability": "nonpayable",
      "type": "function"
    },
    {
      "inputs": [
        {
          "internalType": "uint256",
          "name": "_tradeId",
          "type": "uint256"
        }
      ],
      "name": "sellerDeposit",
      "outputs": [],
      "stateMutability": "payable",
      "type": "function"
    },
    {
      "inputs": [],
      "name": "tradeCounter",
      "outputs": [
        {
          "internalType": "uint256",
          "name": "",
          "type": "uint256"
        }
      ],
      "stateMutability": "view",
      "type": "function"
    },
    {
      "inputs": [
        {
          "internalType": "uint256",
          "name": "",
          "type": "uint256"
        }
      ],
      "name": "trades",
      "outputs": [
        {
          "internalType": "uint256",
          "name": "tradeId",
          "type": "uint256"
        },
        {
          "internalType": "address payable",
          "name": "seller",
          "type": "address"
        },
        {
          "internalType": "address payable",
          "name": "buyer",
          "type": "address"
        },
        {
          "internalType": "uint256",
          "name": "price",
          "type": "uint256"
        },
        {
          "internalType": "uint256",
          "name": "sellerStake",
          "type": "uint256"
        },
        {
          "internalType": "uint256",
          "name": "buyerStake",
          "type": "uint256"
        },
        {
          "internalType": "uint256",
          "name": "activationTime",
          "type": "uint256"
        },
        {
          "internalType": "enum Odex.State",
          "name": "state",
          "type": "uint8"
        }
      ],
      "stateMutability": "view",
      "type": "function"
    }
  ],
  "bytecode": "0x6080604052348015600e575f5ffd5b506110108061001c5f395ff3fe608060405260043610610084575f3560e01c80639339870811610057578063933987081461015c57806396bee3851461017b578063da29af331461019a578063e46d9551146101b9578063fd84cb97146101d8575f5ffd5b80630eb47922146100885780631e6c598e1461009d578063660d15b5146101265780636deba5f314610149575b5f5ffd5b61009b610096366004610e80565b6101f7565b005b3480156100a8575f5ffd5b506101096100b7366004610e80565b5f602081905290815260409020805460018201546002830154600384015460048501546005860154600687015460079097015495966001600160a01b0395861696949095169492939192909160ff1688565b60405161011d989796959493929190610eab565b60405180910390f35b348015610131575f5ffd5b5061013b60015481565b60405190815260200161011d565b61009b610157366004610e80565b610383565b348015610167575f5ffd5b5061009b610176366004610e80565b6104a2565b348015610186575f5ffd5b5061009b610195366004610e80565b61068b565b3480156101a5575f5ffd5b5061009b6101b4366004610e80565b6107fe565b3480156101c4575f5ffd5b5061009b6101d3366004610e80565b610aa7565b3480156101e3575f5ffd5b5061009b6101f2366004610e80565b610c05565b5f8181526020819052604090206001015481906001600160a01b031633146102625760405162461bcd60e51b81526020600482015260196024820152784f6e6c792073656c6c65722063616e2063616c6c207468697360381b60448201526064015b60405180910390fd5b816001805f8381526020819052604090206007015460ff16600581111561028b5761028b610e97565b146102a85760405162461bcd60e51b815260040161025990610f15565b5f8481526020819052604090206003808201546002916102c89190610f60565b6102d29190610f7d565b341461032a5760405162461bcd60e51b815260206004820152602160248201527f4d757374207374616b652065786163746c7920312e35782074686520707269636044820152606560f81b6064820152608401610259565b346004820155426006820181905560078201805460ff1916600217905560405190815285907fa6677fa292884205f4d545dc29ec0b90419ae8e422ddc6ab5fdc4937e14bd8889060200160405180910390a25050505050565b805f805f8381526020819052604090206007015460ff1660058111156103ab576103ab610e97565b146103c85760405162461bcd60e51b815260040161025990610f15565b5f83815260208190526040902060038101546103e5906002610f60565b34146104335760405162461bcd60e51b815260206004820152601f60248201527f4d757374207374616b652065786163746c7920327820746865207072696365006044820152606401610259565b6002810180546001600160a01b031916331790553460058201556007810180546001919060ff1916828002179055506040805133815234602082015285917f39ca1d56c5c9e3e897b0b83ca5bdb66ccc1a90b93c1156690763ef0fba237e14910160405180910390a250505050565b5f8181526020819052604090206002015481906001600160a01b031633146105075760405162461bcd60e51b81526020600482015260186024820152774f6e6c792062757965722063616e2063616c6c207468697360401b6044820152606401610259565b816001805f8381526020819052604090206007015460ff16600581111561053057610530610e97565b1461054d5760405162461bcd60e51b815260040161025990610f15565b5f8481526020819052604080822060078101805460ff191660059081179091558101805490849055600282015492519193909290916001600160a01b039091169083908381818185875af1925050503d805f81146105c6576040519150601f19603f3d011682016040523d82523d5f602084013e6105cb565b606091505b505090508061060e5760405162461bcd60e51b815260206004820152600f60248201526e151c985b9cd9995c8819985a5b1959608a1b6044820152606401610259565b867fb926d4add59927a4c336c9292b0e2e0bdb4300a883008a4373561e6eef7f627260405161067a9060208082526023908201527f4275796572207769746864726577206265666f72652053656c6c6572207374616040820152621ad95960ea1b606082015260800190565b60405180910390a250505050505050565b5f8181526020819052604090206001015481906001600160a01b031633146106f15760405162461bcd60e51b81526020600482015260196024820152784f6e6c792073656c6c65722063616e2063616c6c207468697360381b6044820152606401610259565b816002805f8381526020819052604090206007015460ff16600581111561071a5761071a610e97565b146107375760405162461bcd60e51b815260040161025990610f15565b5f84815260208190526040902060068101546107559061012c610f9c565b4211156107be5760405162461bcd60e51b815260206004820152603160248201527f54696d656f75743a2035206d696e75746573207061737365642c2066756e6473604482015270081b5d5cdd081899481c99599d5b991959607a1b6064820152608401610259565b60078101805460ff1916600317905560405185907f9d14e547f87fdb1c38ace124e67b5e93b6cb58928dafe98e7314fcf3c47c4348905f90a25050505050565b806002805f8381526020819052604090206007015460ff16600581111561082757610827610e97565b146108445760405162461bcd60e51b815260040161025990610f15565b5f83815260208190526040902060068101546108629061012c610f9c565b42116108ba5760405162461bcd60e51b815260206004820152602160248201527f5761697420666f722035206d696e7574652074696d657220746f2065787069726044820152606560f81b6064820152608401610259565b60078101805460ff191660059081179091556001820154600283015460048401805493850180545f92839055908290556040516001600160a01b0394851695949093169392909190859084908381818185875af1925050503d805f811461093c576040519150601f19603f3d011682016040523d82523d5f602084013e610941565b606091505b505090508061098e5760405162461bcd60e51b8152602060048201526019602482015278151c985b9cd9995c881d1bc81cd95b1b195c8819985a5b1959603a1b6044820152606401610259565b5f846001600160a01b0316836040515f6040518083038185875af1925050503d805f81146109d7576040519150601f19603f3d011682016040523d82523d5f602084013e6109dc565b606091505b5050905080610a285760405162461bcd60e51b8152602060048201526018602482015277151c985b9cd9995c881d1bc8189d5e595c8819985a5b195960421b6044820152606401610259565b897fb926d4add59927a4c336c9292b0e2e0bdb4300a883008a4373561e6eef7f6272604051610a939060208082526022908201527f53656c6c6572206661696c656420746f2072656c6561736520696e2035206d696040820152616e7360f01b606082015260800190565b60405180910390a250505050505050505050565b60018054905f610ab683610faf565b91905055506040518061010001604052806001548152602001336001600160a01b031681526020015f6001600160a01b031681526020018281526020015f81526020015f81526020015f81526020015f6005811115610b1757610b17610e97565b9052600180545f9081526020818152604091829020845181559084015181840180546001600160a01b03199081166001600160a01b039384161790915592850151600283018054909416911617909155606083015160038201556080830151600482015560a083015160058083019190915560c0840151600683015560e084015160078301805493949193909260ff1990911691908490811115610bbd57610bbd610e97565b02179055505060015460408051338152602081018590529192507f9adf89188ff96bbe0e772b6a9345d935a240c2bd656be8db63db0d091e92cb9d910160405180910390a250565b5f8181526020819052604090206002015481906001600160a01b03163314610c6a5760405162461bcd60e51b81526020600482015260186024820152774f6e6c792062757965722063616e2063616c6c207468697360401b6044820152606401610259565b816003805f8381526020819052604090206007015460ff166005811115610c9357610c93610e97565b14610cb05760405162461bcd60e51b815260040161025990610f15565b5f84815260208190526040812060078101805460ff19166004908117909155600382015490820154919291610ce59190610f9c565b90505f82600301548360050154610cfc9190610fc7565b5f6004850181905560058501819055600185015460405192935090916001600160a01b039091169084908381818185875af1925050503d805f8114610d5c576040519150601f19603f3d011682016040523d82523d5f602084013e610d61565b606091505b5050905080610dae5760405162461bcd60e51b8152602060048201526019602482015278151c985b9cd9995c881d1bc81cd95b1b195c8819985a5b1959603a1b6044820152606401610259565b60028401546040515f916001600160a01b03169084908381818185875af1925050503d805f8114610dfa576040519150601f19603f3d011682016040523d82523d5f602084013e610dff565b606091505b5050905080610e4b5760405162461bcd60e51b8152602060048201526018602482015277151c985b9cd9995c881d1bc8189d5e595c8819985a5b195960421b6044820152606401610259565b60405189907f60f91a26281f20fb528663f4da55773c83e2ee8a7a5dddb6d1753749e81dc49b905f90a2505050505050505050565b5f60208284031215610e90575f5ffd5b5035919050565b634e487b7160e01b5f52602160045260245ffd5b8881526001600160a01b03888116602083015287166040820152606081018690526080810185905260a0810184905260c08101839052610100810160068310610f0257634e487b7160e01b5f52602160045260245ffd5b8260e08301529998505050505050505050565b6020808252601d908201527f496e76616c696420737461746520666f72207468697320616374696f6e000000604082015260600190565b634e487b7160e01b5f52601160045260245ffd5b8082028115828204841417610f7757610f77610f4c565b92915050565b5f82610f9757634e487b7160e01b5f52601260045260245ffd5b500490565b80820180821115610f7757610f77610f4c565b5f60018201610fc057610fc0610f4c565b5060010190565b81810381811115610f7757610f77610f4c56fea2646970667358221220200814675b1e82a1518dc3c6126a6da7b91d3132e822cf70b178878308e7587164736f6c634300081c0033",
  "linkReferences": {},
  "deployedLinkReferences": {},
  "immutableReferences": {},
  "inputSourceName": "project/contracts/Odex.sol",
  "buildInfoId": "solc-0_8_28-3dfc37f2c673e1a1601fe1c8617393d376d69c1d"
}