{
  "_format": "hh3-artifact-1",
  "contractName": "Odex",
  "sourceName": "contracts/Odex.sol",
  "abi": [
    {
      "anonymous": false,
      "inputs": [
        {
          "indexed": true,
          "internalType": "uint256",
          "name": "tradeId",
          "type": "uint256"
        },
        {
          "indexed": false,
          "internalType": "uint256",
          "name": "timestamp",
          "type": "uint256"
        }
      ],
      "name": "Active",
      "type": "event"
    },
    {
      "anonymous": false,
      "inputs": [
        {
          "indexed": true,
          "internalType": "uint256",
          "name": "tradeId",
          "type": "uint256"
        },
        {
          "indexed": false,
          "internalType": "address",
          "name": "buyer",
          "type": "address"
        },
        {
          "indexed": false,
          "internalType": "uint256",
          "name": "amount",
          "type": "uint256"
        }
      ],
      "name": "BuyerStaked",
      "type": "event"
    },
    {
      "anonymous": false,
      "inputs": [
        {
          "indexed": true,
          "internalType": "uint256",
          "name": "tradeId",
          "type": "uint256"
        }
      ],
      "name": "ItemReleased",
      "type": "event"
    },
    {
      "anonymous": false,
      "inputs": [
        {
          "indexed": true,
          "internalType": "uint256",
          "name": "tradeId",
          "type": "uint256"
        },
        {
          "indexed": false,
          "internalType": "address",
          "name": "seller",
          "type": "address"
        },
        {
          "indexed": false,
          "internalType": "uint256",
          "name": "price",
          "type": "uint256"
        },
        {
          "indexed": false,
          "internalType": "string",
          "name": "itemName",
          "type": "string"
        },
        {
          "indexed": false,
          "internalType": "string",
          "name": "category",
          "type": "string"
        }
      ],
      "name": "ListingCreated",
      "type": "event"
    },
    {
      "anonymous": false,
      "inputs": [
        {
          "indexed": true,
          "internalType": "uint256",
          "name": "tradeId",
          "type": "uint256"
        },
        {
          "indexed": false,
          "internalType": "string",
          "name": "reason",
          "type": "string"
        }
      ],
      "name": "Refunded",
      "type": "event"
    },
    {
      "anonymous": false,
      "inputs": [
        {
          "indexed": true,
          "internalType": "uint256",
          "name": "tradeId",
          "type": "uint256"
        }
      ],
      "name": "TradeCompleted",
      "type": "event"
    },
    {
      "inputs": [
        {
          "internalType": "uint256",
          "name": "_tradeId",
          "type": "uint256"
        }
      ],
      "name": "buyerDeposit",
      "outputs": [],
      "stateMutability": "payable",
      "type": "function"
    },
    {
      "inputs": [
        {
          "internalType": "uint256",
          "name": "_tradeId",
          "type": "uint256"
        }
      ],
      "name": "confirmDelivery",
      "outputs": [],
      "stateMutability": "nonpayable",
      "type": "function"
    },
    {
      "inputs": [
        {
          "internalType": "uint256",
          "name": "_price",
          "type": "uint256"
        },
        {
          "internalType": "string",
          "name": "_itemName",
          "type": "string"
        },
        {
          "internalType": "string",
          "name": "_itemDescription",
          "type": "string"
        },
        {
          "internalType": "string",
          "name": "_category",
          "type": "string"
        }
      ],
      "name": "createListing",
      "outputs": [],
      "stateMutability": "nonpayable",
      "type": "function"
    },
    {
      "inputs": [
        {
          "internalType": "uint256",
          "name": "_tradeId",
          "type": "uint256"
        }
      ],
      "name": "emergencyWithdrawBuyer",
      "outputs": [],
      "stateMutability": "nonpayable",
      "type": "function"
    },
    {
      "inputs": [
        {
          "internalType": "uint256",
          "name": "_tradeId",
          "type": "uint256"
        }
      ],
      "name": "getMetadata",
      "outputs": [
        {
          "components": [
            {
              "internalType": "string",
              "name": "itemName",
              "type": "string"
            },
            {
              "internalType": "string",
              "name": "itemDescription",
              "type": "string"
            },
            {
              "internalType": "string",
              "name": "category",
              "type": "string"
            }
          ],
          "internalType": "struct Odex.Metadata",
          "name": "",
          "type": "tuple"
        }
      ],
      "stateMutability": "view",
      "type": "function"
    },
    {
      "inputs": [
        {
          "internalType": "uint256",
          "name": "_tradeId",
          "type": "uint256"
        }
      ],
      "name": "markItemReleased",
      "outputs": [],
      "stateMutability": "nonpayable",
      "type": "function"
    },
    {
      "inputs": [
        {
          "internalType": "uint256",
          "name": "_tradeId",
          "type": "uint256"
        }
      ],
      "name": "refundTimeout",
      "outputs": [],
      "stateMutability": "nonpayable",
      "type": "function"
    },
    {
      "inputs": [
        {
          "internalType": "uint256",
          "name": "_tradeId",
          "type": "uint256"
        }
      ],
      "name": "sellerDeposit",
      "outputs": [],
      "stateMutability": "payable",
      "type": "function"
    },
    {
      "inputs": [],
      "name": "tradeCounter",
      "outputs": [
        {
          "internalType": "uint256",
          "name": "",
          "type": "uint256"
        }
      ],
      "stateMutability": "view",
      "type": "function"
    },
    {
      "inputs": [
        {
          "internalType": "uint256",
          "name": "",
          "type": "uint256"
        }
      ],
      "name": "tradeMetadata",
      "outputs": [
        {
          "internalType": "string",
          "name": "itemName",
          "type": "string"
        },
        {
          "internalType": "string",
          "name": "itemDescription",
          "type": "string"
        },
        {
          "internalType": "string",
          "name": "category",
          "type": "string"
        }
      ],
      "stateMutability": "view",
      "type": "function"
    },
    {
      "inputs": [
        {
          "internalType": "uint256",
          "name": "",
          "type": "uint256"
        }
      ],
      "name": "trades",
      "outputs": [
        {
          "internalType": "uint256",
          "name": "tradeId",
          "type": "uint256"
        },
        {
          "internalType": "address payable",
          "name": "seller",
          "type": "address"
        },
        {
          "internalType": "address payable",
          "name": "buyer",
          "type": "address"
        },
        {
          "internalType": "uint256",
          "name": "price",
          "type": "uint256"
        },
        {
          "internalType": "uint256",
          "name": "sellerStake",
          "type": "uint256"
        },
        {
          "internalType": "uint256",
          "name": "buyerStake",
          "type": "uint256"
        },
        {
          "internalType": "uint256",
          "name": "activationTime",
          "type": "uint256"
        },
        {
          "internalType": "enum Odex.State",
          "name": "state",
          "type": "uint8"
        }
      ],
      "stateMutability": "view",
      "type": "function"
    }
  ],
  "bytecode": "0x6080604052348015600e575f5ffd5b506118178061001c5f395ff3fe60806040526004361061009a575f3560e01c8063813ae81f11610062578063813ae81f1461019157806393398708146101bf57806396bee385146101de578063a574cea4146101fd578063da29af3314610229578063fd84cb9714610248575f5ffd5b80630eb479221461009e5780631e6c598e146100b35780635ff031201461013c578063660d15b51461015b5780636deba5f31461017e575b5f5ffd5b6100b16100ac3660046112ff565b610267565b005b3480156100be575f5ffd5b5061011f6100cd3660046112ff565b5f602081905290815260409020805460018201546002830154600384015460048501546005860154600687015460079097015495966001600160a01b0395861696949095169492939192909160ff1688565b60405161013398979695949392919061132a565b60405180910390f35b348015610147575f5ffd5b506100b1610156366004611433565b6103f3565b348015610166575f5ffd5b5061017060025481565b604051908152602001610133565b6100b161018c3660046112ff565b6105c4565b34801561019c575f5ffd5b506101b06101ab3660046112ff565b6106da565b604051610133939291906114f9565b3480156101ca575f5ffd5b506100b16101d93660046112ff565b61088d565b3480156101e9575f5ffd5b506100b16101f83660046112ff565b610a76565b348015610208575f5ffd5b5061021c6102173660046112ff565b610be9565b604051610133919061153b565b348015610234575f5ffd5b506100b16102433660046112ff565b610ddb565b348015610253575f5ffd5b506100b16102623660046112ff565b611084565b5f8181526020819052604090206001015481906001600160a01b031633146102d25760405162461bcd60e51b81526020600482015260196024820152784f6e6c792073656c6c65722063616e2063616c6c207468697360381b60448201526064015b60405180910390fd5b816001805f8381526020819052604090206007015460ff1660058111156102fb576102fb611316565b146103185760405162461bcd60e51b81526004016102c99061159a565b5f84815260208190526040902060038082015460029161033891906115e5565b6103429190611602565b341461039a5760405162461bcd60e51b815260206004820152602160248201527f4d757374207374616b652065786163746c7920312e35782074686520707269636044820152606560f81b60648201526084016102c9565b346004820155426006820181905560078201805460ff1916600217905560405190815285907fa6677fa292884205f4d545dc29ec0b90419ae8e422ddc6ab5fdc4937e14bd8889060200160405180910390a25050505050565b60028054905f61040283611621565b91905055506040518061010001604052806002548152602001336001600160a01b031681526020015f6001600160a01b031681526020018581526020015f81526020015f81526020015f81526020015f600581111561046357610463611316565b9052600280545f90815260208181526040918290208451815590840151600180830180546001600160a01b039384166001600160a01b031991821617909155938601519483018054959092169490931693909317909255606083015160038301556080830151600483015560a083015160058084019190915560c0840151600684015560e08401516007840180549193909260ff1990921691849081111561050d5761050d611316565b0217905550506040805160608101825285815260208082018690528183018590526002545f908152600190915291909120815191925090819061055090826116bd565b506020820151600182019061056590826116bd565b506040820151600282019061057a90826116bd565b509050506002547f6046a0779403a9b58628db4e89f8fb48ddd1844ca3df25a728482823988b43af338686856040516105b69493929190611778565b60405180910390a250505050565b805f805f8381526020819052604090206007015460ff1660058111156105ec576105ec611316565b146106095760405162461bcd60e51b81526004016102c99061159a565b5f83815260208190526040902060038101546106269060026115e5565b34146106745760405162461bcd60e51b815260206004820152601f60248201527f4d757374207374616b652065786163746c79203278207468652070726963650060448201526064016102c9565b6002810180546001600160a01b031916331790553460058201556007810180546001919060ff1916828002179055506040805133815234602082015285917f39ca1d56c5c9e3e897b0b83ca5bdb66ccc1a90b93c1156690763ef0fba237e1491016105b6565b60016020525f90815260409020805481906106f490611639565b80601f016020809104026020016040519081016040528092919081815260200182805461072090611639565b801561076b5780601f106107425761010080835404028352916020019161076b565b820191905f5260205f20905b81548152906001019060200180831161074e57829003601f168201915b50505050509080600101805461078090611639565b80601f01602080910402602001604051908101604052809291908181526020018280546107ac90611639565b80156107f75780601f106107ce576101008083540402835291602001916107f7565b820191905f5260205f20905b8154815290600101906020018083116107da57829003601f168201915b50505050509080600201805461080c90611639565b80601f016020809104026020016040519081016040528092919081815260200182805461083890611639565b80156108835780601f1061085a57610100808354040283529160200191610883565b820191905f5260205f20905b81548152906001019060200180831161086657829003601f168201915b5050505050905083565b5f8181526020819052604090206002015481906001600160a01b031633146108f25760405162461bcd60e51b81526020600482015260186024820152774f6e6c792062757965722063616e2063616c6c207468697360401b60448201526064016102c9565b816001805f8381526020819052604090206007015460ff16600581111561091b5761091b611316565b146109385760405162461bcd60e51b81526004016102c99061159a565b5f8481526020819052604080822060078101805460ff191660059081179091558101805490849055600282015492519193909290916001600160a01b039091169083908381818185875af1925050503d805f81146109b1576040519150601f19603f3d011682016040523d82523d5f602084013e6109b6565b606091505b50509050806109f95760405162461bcd60e51b815260206004820152600f60248201526e151c985b9cd9995c8819985a5b1959608a1b60448201526064016102c9565b867fb926d4add59927a4c336c9292b0e2e0bdb4300a883008a4373561e6eef7f6272604051610a659060208082526023908201527f4275796572207769746864726577206265666f72652053656c6c6572207374616040820152621ad95960ea1b606082015260800190565b60405180910390a250505050505050565b5f8181526020819052604090206001015481906001600160a01b03163314610adc5760405162461bcd60e51b81526020600482015260196024820152784f6e6c792073656c6c65722063616e2063616c6c207468697360381b60448201526064016102c9565b816002805f8381526020819052604090206007015460ff166005811115610b0557610b05611316565b14610b225760405162461bcd60e51b81526004016102c99061159a565b5f8481526020819052604090206006810154610b409061012c6117bb565b421115610ba95760405162461bcd60e51b815260206004820152603160248201527f54696d656f75743a2035206d696e75746573207061737365642c2066756e6473604482015270081b5d5cdd081899481c99599d5b991959607a1b60648201526084016102c9565b60078101805460ff1916600317905560405185907f9d14e547f87fdb1c38ace124e67b5e93b6cb58928dafe98e7314fcf3c47c4348905f90a25050505050565b610c0d60405180606001604052806060815260200160608152602001606081525090565b5f8281526001602052604090819020815160608101909252805482908290610c3490611639565b80601f0160208091040260200160405190810160405280929190818152602001828054610c6090611639565b8015610cab5780601f10610c8257610100808354040283529160200191610cab565b820191905f5260205f20905b815481529060010190602001808311610c8e57829003601f168201915b50505050508152602001600182018054610cc490611639565b80601f0160208091040260200160405190810160405280929190818152602001828054610cf090611639565b8015610d3b5780601f10610d1257610100808354040283529160200191610d3b565b820191905f5260205f20905b815481529060010190602001808311610d1e57829003601f168201915b50505050508152602001600282018054610d5490611639565b80601f0160208091040260200160405190810160405280929190818152602001828054610d8090611639565b8015610dcb5780601f10610da257610100808354040283529160200191610dcb565b820191905f5260205f20905b815481529060010190602001808311610dae57829003601f168201915b5050505050815250509050919050565b806002805f8381526020819052604090206007015460ff166005811115610e0457610e04611316565b14610e215760405162461bcd60e51b81526004016102c99061159a565b5f8381526020819052604090206006810154610e3f9061012c6117bb565b4211610e975760405162461bcd60e51b815260206004820152602160248201527f5761697420666f722035206d696e7574652074696d657220746f2065787069726044820152606560f81b60648201526084016102c9565b60078101805460ff191660059081179091556001820154600283015460048401805493850180545f92839055908290556040516001600160a01b0394851695949093169392909190859084908381818185875af1925050503d805f8114610f19576040519150601f19603f3d011682016040523d82523d5f602084013e610f1e565b606091505b5050905080610f6b5760405162461bcd60e51b8152602060048201526019602482015278151c985b9cd9995c881d1bc81cd95b1b195c8819985a5b1959603a1b60448201526064016102c9565b5f846001600160a01b0316836040515f6040518083038185875af1925050503d805f8114610fb4576040519150601f19603f3d011682016040523d82523d5f602084013e610fb9565b606091505b50509050806110055760405162461bcd60e51b8152602060048201526018602482015277151c985b9cd9995c881d1bc8189d5e595c8819985a5b195960421b60448201526064016102c9565b897fb926d4add59927a4c336c9292b0e2e0bdb4300a883008a4373561e6eef7f62726040516110709060208082526022908201527f53656c6c6572206661696c656420746f2072656c6561736520696e2035206d696040820152616e7360f01b606082015260800190565b60405180910390a250505050505050505050565b5f8181526020819052604090206002015481906001600160a01b031633146110e95760405162461bcd60e51b81526020600482015260186024820152774f6e6c792062757965722063616e2063616c6c207468697360401b60448201526064016102c9565b816003805f8381526020819052604090206007015460ff16600581111561111257611112611316565b1461112f5760405162461bcd60e51b81526004016102c99061159a565b5f84815260208190526040812060078101805460ff1916600490811790915560038201549082015491929161116491906117bb565b90505f8260030154836005015461117b91906117ce565b5f6004850181905560058501819055600185015460405192935090916001600160a01b039091169084908381818185875af1925050503d805f81146111db576040519150601f19603f3d011682016040523d82523d5f602084013e6111e0565b606091505b505090508061122d5760405162461bcd60e51b8152602060048201526019602482015278151c985b9cd9995c881d1bc81cd95b1b195c8819985a5b1959603a1b60448201526064016102c9565b60028401546040515f916001600160a01b03169084908381818185875af1925050503d805f8114611279576040519150601f19603f3d011682016040523d82523d5f602084013e61127e565b606091505b50509050806112ca5760405162461bcd60e51b8152602060048201526018602482015277151c985b9cd9995c881d1bc8189d5e595c8819985a5b195960421b60448201526064016102c9565b60405189907f60f91a26281f20fb528663f4da55773c83e2ee8a7a5dddb6d1753749e81dc49b905f90a2505050505050505050565b5f6020828403121561130f575f5ffd5b5035919050565b634e487b7160e01b5f52602160045260245ffd5b8881526001600160a01b03888116602083015287166040820152606081018690526080810185905260a0810184905260c0810183905261010081016006831061138157634e487b7160e01b5f52602160045260245ffd5b8260e08301529998505050505050505050565b634e487b7160e01b5f52604160045260245ffd5b5f82601f8301126113b7575f5ffd5b813567ffffffffffffffff8111156113d1576113d1611394565b604051601f8201601f19908116603f0116810167ffffffffffffffff8111828210171561140057611400611394565b604052818152838201602001851015611417575f5ffd5b816020850160208301375f918101602001919091529392505050565b5f5f5f5f60808587031215611446575f5ffd5b84359350602085013567ffffffffffffffff811115611463575f5ffd5b61146f878288016113a8565b935050604085013567ffffffffffffffff81111561148b575f5ffd5b611497878288016113a8565b925050606085013567ffffffffffffffff8111156114b3575f5ffd5b6114bf878288016113a8565b91505092959194509250565b5f81518084528060208401602086015e5f602082860101526020601f19601f83011685010191505092915050565b606081525f61150b60608301866114cb565b828103602084015261151d81866114cb565b9050828103604084015261153181856114cb565b9695505050505050565b602081525f82516060602084015261155660808401826114cb565b90506020840151601f1984830301604085015261157382826114cb565b9150506040840151601f1984830301606085015261159182826114cb565b95945050505050565b6020808252601d908201527f496e76616c696420737461746520666f72207468697320616374696f6e000000604082015260600190565b634e487b7160e01b5f52601160045260245ffd5b80820281158282048414176115fc576115fc6115d1565b92915050565b5f8261161c57634e487b7160e01b5f52601260045260245ffd5b500490565b5f60018201611632576116326115d1565b5060010190565b600181811c9082168061164d57607f821691505b60208210810361166b57634e487b7160e01b5f52602260045260245ffd5b50919050565b601f8211156116b857805f5260205f20601f840160051c810160208510156116965750805b601f840160051c820191505b818110156116b5575f81556001016116a2565b50505b505050565b815167ffffffffffffffff8111156116d7576116d7611394565b6116eb816116e58454611639565b84611671565b6020601f82116001811461171d575f83156117065750848201515b5f19600385901b1c1916600184901b1784556116b5565b5f84815260208120601f198516915b8281101561174c578785015182556020948501946001909201910161172c565b508482101561176957868401515f19600387901b60f8161c191681555b50505050600190811b01905550565b60018060a01b0385168152836020820152608060408201525f61179e60808301856114cb565b82810360608401526117b081856114cb565b979650505050505050565b808201808211156115fc576115fc6115d1565b818103818111156115fc576115fc6115d156fea2646970667358221220b0d6752d62a60c19537410f4f253af98ffed03431d796e3d0691692afb10b52964736f6c634300081c0033",
  "linkReferences": {},
  "deployedLinkReferences": {},
  "immutableReferences": {},
  "inputSourceName": "project/contracts/Odex.sol",
  "buildInfoId": "solc-0_8_28-641f049ad164d8292553b806b0040e4ed1e742b0"
}